{
  "_format": "hh3-artifact-1",
  "contractName": "MyNFT",
  "sourceName": "contracts/MyNFT.sol",
  "abi": [
    {
      "inputs": [
        {
          "internalType": "string",
          "name": "_name",
          "type": "string"
        },
        {
          "internalType": "string",
          "name": "_symbol",
          "type": "string"
        },
        {
          "internalType": "string",
          "name": "_uri",
          "type": "string"
        }
      ],
      "stateMutability": "nonpayable",
      "type": "constructor"
    },
    {
      "inputs": [
        {
          "internalType": "uint256",
          "name": "numerator",
          "type": "uint256"
        },
        {
          "internalType": "uint256",
          "name": "denominator",
          "type": "uint256"
        }
      ],
      "name": "ERC2981InvalidDefaultRoyalty",
      "type": "error"
    },
    {
      "inputs": [
        {
          "internalType": "address",
          "name": "receiver",
          "type": "address"
        }
      ],
      "name": "ERC2981InvalidDefaultRoyaltyReceiver",
      "type": "error"
    },
    {
      "inputs": [
        {
          "internalType": "uint256",
          "name": "tokenId",
          "type": "uint256"
        },
        {
          "internalType": "uint256",
          "name": "numerator",
          "type": "uint256"
        },
        {
          "internalType": "uint256",
          "name": "denominator",
          "type": "uint256"
        }
      ],
      "name": "ERC2981InvalidTokenRoyalty",
      "type": "error"
    },
    {
      "inputs": [
        {
          "internalType": "uint256",
          "name": "tokenId",
          "type": "uint256"
        },
        {
          "internalType": "address",
          "name": "receiver",
          "type": "address"
        }
      ],
      "name": "ERC2981InvalidTokenRoyaltyReceiver",
      "type": "error"
    },
    {
      "inputs": [
        {
          "internalType": "address",
          "name": "sender",
          "type": "address"
        },
        {
          "internalType": "uint256",
          "name": "tokenId",
          "type": "uint256"
        },
        {
          "internalType": "address",
          "name": "owner",
          "type": "address"
        }
      ],
      "name": "ERC721IncorrectOwner",
      "type": "error"
    },
    {
      "inputs": [
        {
          "internalType": "address",
          "name": "operator",
          "type": "address"
        },
        {
          "internalType": "uint256",
          "name": "tokenId",
          "type": "uint256"
        }
      ],
      "name": "ERC721InsufficientApproval",
      "type": "error"
    },
    {
      "inputs": [
        {
          "internalType": "address",
          "name": "approver",
          "type": "address"
        }
      ],
      "name": "ERC721InvalidApprover",
      "type": "error"
    },
    {
      "inputs": [
        {
          "internalType": "address",
          "name": "operator",
          "type": "address"
        }
      ],
      "name": "ERC721InvalidOperator",
      "type": "error"
    },
    {
      "inputs": [
        {
          "internalType": "address",
          "name": "owner",
          "type": "address"
        }
      ],
      "name": "ERC721InvalidOwner",
      "type": "error"
    },
    {
      "inputs": [
        {
          "internalType": "address",
          "name": "receiver",
          "type": "address"
        }
      ],
      "name": "ERC721InvalidReceiver",
      "type": "error"
    },
    {
      "inputs": [
        {
          "internalType": "address",
          "name": "sender",
          "type": "address"
        }
      ],
      "name": "ERC721InvalidSender",
      "type": "error"
    },
    {
      "inputs": [
        {
          "internalType": "uint256",
          "name": "tokenId",
          "type": "uint256"
        }
      ],
      "name": "ERC721NonexistentToken",
      "type": "error"
    },
    {
      "inputs": [],
      "name": "FeeTooHigh",
      "type": "error"
    },
    {
      "inputs": [
        {
          "internalType": "address",
          "name": "owner",
          "type": "address"
        }
      ],
      "name": "OwnableInvalidOwner",
      "type": "error"
    },
    {
      "inputs": [
        {
          "internalType": "address",
          "name": "account",
          "type": "address"
        }
      ],
      "name": "OwnableUnauthorizedAccount",
      "type": "error"
    },
    {
      "anonymous": false,
      "inputs": [
        {
          "indexed": true,
          "internalType": "address",
          "name": "owner",
          "type": "address"
        },
        {
          "indexed": true,
          "internalType": "address",
          "name": "approved",
          "type": "address"
        },
        {
          "indexed": true,
          "internalType": "uint256",
          "name": "tokenId",
          "type": "uint256"
        }
      ],
      "name": "Approval",
      "type": "event"
    },
    {
      "anonymous": false,
      "inputs": [
        {
          "indexed": true,
          "internalType": "address",
          "name": "owner",
          "type": "address"
        },
        {
          "indexed": true,
          "internalType": "address",
          "name": "operator",
          "type": "address"
        },
        {
          "indexed": false,
          "internalType": "bool",
          "name": "approved",
          "type": "bool"
        }
      ],
      "name": "ApprovalForAll",
      "type": "event"
    },
    {
      "anonymous": false,
      "inputs": [
        {
          "indexed": false,
          "internalType": "string",
          "name": "newUri",
          "type": "string"
        }
      ],
      "name": "BaseURISet",
      "type": "event"
    },
    {
      "anonymous": false,
      "inputs": [
        {
          "indexed": true,
          "internalType": "address",
          "name": "previousOwner",
          "type": "address"
        },
        {
          "indexed": true,
          "internalType": "address",
          "name": "newOwner",
          "type": "address"
        }
      ],
      "name": "OwnershipTransferred",
      "type": "event"
    },
    {
      "anonymous": false,
      "inputs": [
        {
          "indexed": true,
          "internalType": "uint256",
          "name": "tokenId",
          "type": "uint256"
        },
        {
          "indexed": true,
          "internalType": "address",
          "name": "receiver",
          "type": "address"
        },
        {
          "indexed": false,
          "internalType": "uint96",
          "name": "feeBp",
          "type": "uint96"
        }
      ],
      "name": "TokenRoyaltySet",
      "type": "event"
    },
    {
      "anonymous": false,
      "inputs": [
        {
          "indexed": true,
          "internalType": "address",
          "name": "from",
          "type": "address"
        },
        {
          "indexed": true,
          "internalType": "address",
          "name": "to",
          "type": "address"
        },
        {
          "indexed": true,
          "internalType": "uint256",
          "name": "tokenId",
          "type": "uint256"
        }
      ],
      "name": "Transfer",
      "type": "event"
    },
    {
      "inputs": [],
      "name": "MAX_FEE_BP",
      "outputs": [
        {
          "internalType": "uint256",
          "name": "",
          "type": "uint256"
        }
      ],
      "stateMutability": "view",
      "type": "function"
    },
    {
      "inputs": [
        {
          "internalType": "address",
          "name": "to",
          "type": "address"
        },
        {
          "internalType": "uint256",
          "name": "tokenId",
          "type": "uint256"
        }
      ],
      "name": "approve",
      "outputs": [],
      "stateMutability": "nonpayable",
      "type": "function"
    },
    {
      "inputs": [
        {
          "internalType": "address",
          "name": "owner",
          "type": "address"
        }
      ],
      "name": "balanceOf",
      "outputs": [
        {
          "internalType": "uint256",
          "name": "",
          "type": "uint256"
        }
      ],
      "stateMutability": "view",
      "type": "function"
    },
    {
      "inputs": [
        {
          "internalType": "uint256",
          "name": "tokenId",
          "type": "uint256"
        }
      ],
      "name": "getApproved",
      "outputs": [
        {
          "internalType": "address",
          "name": "",
          "type": "address"
        }
      ],
      "stateMutability": "view",
      "type": "function"
    },
    {
      "inputs": [
        {
          "internalType": "address",
          "name": "owner",
          "type": "address"
        },
        {
          "internalType": "address",
          "name": "operator",
          "type": "address"
        }
      ],
      "name": "isApprovedForAll",
      "outputs": [
        {
          "internalType": "bool",
          "name": "",
          "type": "bool"
        }
      ],
      "stateMutability": "view",
      "type": "function"
    },
    {
      "inputs": [
        {
          "internalType": "address",
          "name": "to",
          "type": "address"
        }
      ],
      "name": "mint",
      "outputs": [
        {
          "internalType": "uint256",
          "name": "tokenId",
          "type": "uint256"
        }
      ],
      "stateMutability": "nonpayable",
      "type": "function"
    },
    {
      "inputs": [
        {
          "internalType": "address",
          "name": "to",
          "type": "address"
        },
        {
          "internalType": "address",
          "name": "royaltyReceiver",
          "type": "address"
        },
        {
          "internalType": "uint96",
          "name": "feeBp",
          "type": "uint96"
        }
      ],
      "name": "mintWithRoyalty",
      "outputs": [
        {
          "internalType": "uint256",
          "name": "tokenId",
          "type": "uint256"
        }
      ],
      "stateMutability": "nonpayable",
      "type": "function"
    },
    {
      "inputs": [],
      "name": "name",
      "outputs": [
        {
          "internalType": "string",
          "name": "",
          "type": "string"
        }
      ],
      "stateMutability": "view",
      "type": "function"
    },
    {
      "inputs": [],
      "name": "owner",
      "outputs": [
        {
          "internalType": "address",
          "name": "",
          "type": "address"
        }
      ],
      "stateMutability": "view",
      "type": "function"
    },
    {
      "inputs": [
        {
          "internalType": "uint256",
          "name": "tokenId",
          "type": "uint256"
        }
      ],
      "name": "ownerOf",
      "outputs": [
        {
          "internalType": "address",
          "name": "",
          "type": "address"
        }
      ],
      "stateMutability": "view",
      "type": "function"
    },
    {
      "inputs": [],
      "name": "renounceOwnership",
      "outputs": [],
      "stateMutability": "nonpayable",
      "type": "function"
    },
    {
      "inputs": [
        {
          "internalType": "uint256",
          "name": "tokenId",
          "type": "uint256"
        },
        {
          "internalType": "uint256",
          "name": "salePrice",
          "type": "uint256"
        }
      ],
      "name": "royaltyInfo",
      "outputs": [
        {
          "internalType": "address",
          "name": "receiver",
          "type": "address"
        },
        {
          "internalType": "uint256",
          "name": "amount",
          "type": "uint256"
        }
      ],
      "stateMutability": "view",
      "type": "function"
    },
    {
      "inputs": [
        {
          "internalType": "address",
          "name": "from",
          "type": "address"
        },
        {
          "internalType": "address",
          "name": "to",
          "type": "address"
        },
        {
          "internalType": "uint256",
          "name": "tokenId",
          "type": "uint256"
        }
      ],
      "name": "safeTransferFrom",
      "outputs": [],
      "stateMutability": "nonpayable",
      "type": "function"
    },
    {
      "inputs": [
        {
          "internalType": "address",
          "name": "from",
          "type": "address"
        },
        {
          "internalType": "address",
          "name": "to",
          "type": "address"
        },
        {
          "internalType": "uint256",
          "name": "tokenId",
          "type": "uint256"
        },
        {
          "internalType": "bytes",
          "name": "data",
          "type": "bytes"
        }
      ],
      "name": "safeTransferFrom",
      "outputs": [],
      "stateMutability": "nonpayable",
      "type": "function"
    },
    {
      "inputs": [
        {
          "internalType": "address",
          "name": "operator",
          "type": "address"
        },
        {
          "internalType": "bool",
          "name": "approved",
          "type": "bool"
        }
      ],
      "name": "setApprovalForAll",
      "outputs": [],
      "stateMutability": "nonpayable",
      "type": "function"
    },
    {
      "inputs": [
        {
          "internalType": "string",
          "name": "_uri",
          "type": "string"
        }
      ],
      "name": "setBaseURI",
      "outputs": [],
      "stateMutability": "nonpayable",
      "type": "function"
    },
    {
      "inputs": [
        {
          "internalType": "uint256",
          "name": "tokenId",
          "type": "uint256"
        },
        {
          "internalType": "address",
          "name": "receiver",
          "type": "address"
        },
        {
          "internalType": "uint96",
          "name": "feeBp",
          "type": "uint96"
        }
      ],
      "name": "setTokenRoyalty",
      "outputs": [],
      "stateMutability": "nonpayable",
      "type": "function"
    },
    {
      "inputs": [
        {
          "internalType": "bytes4",
          "name": "interfaceId",
          "type": "bytes4"
        }
      ],
      "name": "supportsInterface",
      "outputs": [
        {
          "internalType": "bool",
          "name": "",
          "type": "bool"
        }
      ],
      "stateMutability": "view",
      "type": "function"
    },
    {
      "inputs": [],
      "name": "symbol",
      "outputs": [
        {
          "internalType": "string",
          "name": "",
          "type": "string"
        }
      ],
      "stateMutability": "view",
      "type": "function"
    },
    {
      "inputs": [
        {
          "internalType": "uint256",
          "name": "tokenId",
          "type": "uint256"
        }
      ],
      "name": "tokenURI",
      "outputs": [
        {
          "internalType": "string",
          "name": "",
          "type": "string"
        }
      ],
      "stateMutability": "view",
      "type": "function"
    },
    {
      "inputs": [],
      "name": "totalSupply",
      "outputs": [
        {
          "internalType": "uint256",
          "name": "",
          "type": "uint256"
        }
      ],
      "stateMutability": "view",
      "type": "function"
    },
    {
      "inputs": [
        {
          "internalType": "address",
          "name": "from",
          "type": "address"
        },
        {
          "internalType": "address",
          "name": "to",
          "type": "address"
        },
        {
          "internalType": "uint256",
          "name": "tokenId",
          "type": "uint256"
        }
      ],
      "name": "transferFrom",
      "outputs": [],
      "stateMutability": "nonpayable",
      "type": "function"
    },
    {
      "inputs": [
        {
          "internalType": "address",
          "name": "newOwner",
          "type": "address"
        }
      ],
      "name": "transferOwnership",
      "outputs": [],
      "stateMutability": "nonpayable",
      "type": "function"
    }
  ],
  "bytecode": "0x608060405234801561000f575f5ffd5b50604051611bfb380380611bfb83398101604081905261002e91610186565b3383835f61003c8382610299565b5060016100498282610299565b5050506001600160a01b03811661007957604051631e4fbdf760e01b81525f600482015260240160405180910390fd5b61008281610098565b50600a61008f8282610299565b50505050610353565b600680546001600160a01b038381166001600160a01b0319831681179093556040519116919082907f8be0079c531659141344cd1fd0a4f28419497f9722a3daafe3b4186f6b6457e0905f90a35050565b634e487b7160e01b5f52604160045260245ffd5b5f82601f83011261010c575f5ffd5b81516001600160401b03811115610125576101256100e9565b604051601f8201601f19908116603f011681016001600160401b0381118282101715610153576101536100e9565b60405281815283820160200185101561016a575f5ffd5b8160208501602083015e5f918101602001919091529392505050565b5f5f5f60608486031215610198575f5ffd5b83516001600160401b038111156101ad575f5ffd5b6101b9868287016100fd565b602086015190945090506001600160401b038111156101d6575f5ffd5b6101e2868287016100fd565b604086015190935090506001600160401b038111156101ff575f5ffd5b61020b868287016100fd565b9150509250925092565b600181811c9082168061022957607f821691505b60208210810361024757634e487b7160e01b5f52602260045260245ffd5b50919050565b601f82111561029457805f5260205f20601f840160051c810160208510156102725750805b601f840160051c820191505b81811015610291575f815560010161027e565b50505b505050565b81516001600160401b038111156102b2576102b26100e9565b6102c6816102c08454610215565b8461024d565b6020601f8211600181146102f8575f83156102e15750848201515b5f19600385901b1c1916600184901b178455610291565b5f84815260208120601f198516915b828110156103275787850151825560209485019460019092019101610307565b508482101561034457868401515f19600387901b60f8161c191681555b50505050600190811b01905550565b61189b806103605f395ff3fe608060405234801561000f575f5ffd5b5060043610610184575f3560e01c80636a627842116100dd578063a22cb46511610088578063e985e9c511610063578063e985e9c514610331578063f2fde38b1461036c578063ffc38f561461037f575f5ffd5b8063a22cb465146102f8578063b88d4fde1461030b578063c87b56dd1461031e575f5ffd5b8063715018a6116100b8578063715018a6146102d75780638da5cb5b146102df57806395d89b41146102f0575f5ffd5b80636a627842146102a85780636eb3abe0146102bb57806370a08231146102c4575f5ffd5b806323b872dd1161013d57806355f804b31161011857806355f804b31461026f5780635944c753146102825780636352211e14610295575f5ffd5b806323b872dd146102175780632a55205a1461022a57806342842e0e1461025c575f5ffd5b8063081812fc1161016d578063081812fc146101c5578063095ea7b3146101f057806318160ddd14610205575f5ffd5b806301ffc9a71461018857806306fdde03146101b0575b5f5ffd5b61019b6101963660046112f5565b610392565b60405190151581526020015b60405180910390f35b6101b86103a2565b6040516101a7919061133e565b6101d86101d3366004611350565b610431565b6040516001600160a01b0390911681526020016101a7565b6102036101fe36600461137d565b610458565b005b6009545b6040519081526020016101a7565b6102036102253660046113a5565b610467565b61023d6102383660046113df565b61050e565b604080516001600160a01b0390931683526020830191909152016101a7565b61020361026a3660046113a5565b6105a0565b61020361027d36600461148a565b6105bf565b6102036102903660046114ea565b61060e565b6101d86102a3366004611350565b6106b0565b6102096102b6366004611523565b6106ba565b61020961271081565b6102096102d2366004611523565b6106e7565b610203610745565b6006546001600160a01b03166101d8565b6101b8610758565b61020361030636600461153c565b610767565b610203610319366004611575565b610772565b6101b861032c366004611350565b61078a565b61019b61033f3660046115ec565b6001600160a01b039182165f90815260056020908152604080832093909416825291909152205460ff1690565b61020361037a366004611523565b6107ef565b61020961038d36600461161d565b610845565b5f61039c826108ea565b92915050565b60605f80546103b090611646565b80601f01602080910402602001604051908101604052809291908181526020018280546103dc90611646565b80156104275780601f106103fe57610100808354040283529160200191610427565b820191905f5260205f20905b81548152906001019060200180831161040a57829003601f168201915b5050505050905090565b5f61043b82610927565b505f828152600460205260409020546001600160a01b031661039c565b61046382823361095f565b5050565b6001600160a01b03821661049557604051633250574960e11b81525f60048201526024015b60405180910390fd5b5f6104a183833361096c565b9050836001600160a01b0316816001600160a01b031614610508576040517f64283d7b0000000000000000000000000000000000000000000000000000000081526001600160a01b038086166004830152602482018490528216604482015260640161048c565b50505050565b5f82815260086020526040812080548291906001600160a01b03811690600160a01b90046bffffffffffffffffffffffff168161056b5750506007546001600160a01b03811690600160a01b90046bffffffffffffffffffffffff165b5f6127106105876bffffffffffffffffffffffff841689611692565b61059191906116a9565b92989297509195505050505050565b6105ba83838360405180602001604052805f815250610772565b505050565b6105c7610a6b565b600a6105d3828261170c565b507ff9c7803e94e0d3c02900d8a90893a6d5e90dd04d32a4cfe825520f82bf9f32f681604051610603919061133e565b60405180910390a150565b610616610a6b565b61061f83610927565b50612710816bffffffffffffffffffffffff1611156106515760405163cd4e616760e01b815260040160405180910390fd5b61065c838383610ab1565b6040516bffffffffffffffffffffffff821681526001600160a01b0383169084907f7f5b076c952c0ec86e5425963c1326dd0f03a3595c19f81d765e8ff559a6e33c906020015b60405180910390a3505050565b5f61039c82610927565b5f6106c3610a6b565b60098054905f6106d2836117c7565b9190505590506106e28282610bb2565b919050565b5f6001600160a01b03821661072a576040517f89c62b640000000000000000000000000000000000000000000000000000000081525f600482015260240161048c565b506001600160a01b03165f9081526003602052604090205490565b61074d610a6b565b6107565f610c2c565b565b6060600180546103b090611646565b610463338383610c8a565b61077d848484610467565b6105083385858585610d62565b606061079582610927565b505f61079f610e8a565b90505f8151116107bd5760405180602001604052805f8152506107e8565b806107c784610e99565b6040516020016107d89291906117f6565b6040516020818303038152906040525b9392505050565b6107f7610a6b565b6001600160a01b038116610839576040517f1e4fbdf70000000000000000000000000000000000000000000000000000000081525f600482015260240161048c565b61084281610c2c565b50565b5f61084e610a6b565b612710826bffffffffffffffffffffffff16111561087f5760405163cd4e616760e01b815260040160405180910390fd5b610888846106ba565b9050610895818484610ab1565b6040516bffffffffffffffffffffffff831681526001600160a01b0384169082907f7f5b076c952c0ec86e5425963c1326dd0f03a3595c19f81d765e8ff559a6e33c9060200160405180910390a39392505050565b5f6001600160e01b031982167f2a55205a00000000000000000000000000000000000000000000000000000000148061039c575061039c82610f36565b5f818152600260205260408120546001600160a01b03168061039c57604051637e27328960e01b81526004810184905260240161048c565b6105ba8383836001610fd0565b5f828152600260205260408120546001600160a01b0390811690831615610998576109988184866110ff565b6001600160a01b038116156109d2576109b35f855f5f610fd0565b6001600160a01b0381165f90815260036020526040902080545f190190555b6001600160a01b03851615610a00576001600160a01b0385165f908152600360205260409020805460010190555b5f84815260026020526040808220805473ffffffffffffffffffffffffffffffffffffffff19166001600160a01b0389811691821790925591518793918516917fddf252ad1be2c89b69c2b068fc378daa952ba7f163c4a11628f55a4df523b3ef91a4949350505050565b6006546001600160a01b03163314610756576040517f118cdaa700000000000000000000000000000000000000000000000000000000815233600482015260240161048c565b6127106bffffffffffffffffffffffff8216811015610b1a576040517fdfd1fc1b000000000000000000000000000000000000000000000000000000008152600481018590526bffffffffffffffffffffffff831660248201526044810182905260640161048c565b6001600160a01b038316610b63576040517f969f0852000000000000000000000000000000000000000000000000000000008152600481018590525f602482015260440161048c565b506040805180820182526001600160a01b0393841681526bffffffffffffffffffffffff92831660208083019182525f968752600890529190942093519051909116600160a01b029116179055565b6001600160a01b038216610bdb57604051633250574960e11b81525f600482015260240161048c565b5f610be783835f61096c565b90506001600160a01b038116156105ba576040517f73c6ac6e0000000000000000000000000000000000000000000000000000000081525f600482015260240161048c565b600680546001600160a01b0383811673ffffffffffffffffffffffffffffffffffffffff19831681179093556040519116919082907f8be0079c531659141344cd1fd0a4f28419497f9722a3daafe3b4186f6b6457e0905f90a35050565b6001600160a01b038316610cb35760405163a9fbf51f60e01b81525f600482015260240161048c565b6001600160a01b038216610cfe576040517f5b08ba180000000000000000000000000000000000000000000000000000000081526001600160a01b038316600482015260240161048c565b6001600160a01b038381165f81815260056020908152604080832094871680845294825291829020805460ff191686151590811790915591519182527f17307eab39ab6107e8899845ad3d59bd9653f200f220920489ca2b5937696c3191016106a3565b6001600160a01b0383163b15610e8357604051630a85bd0160e11b81526001600160a01b0384169063150b7a0290610da490889088908790879060040161180a565b6020604051808303815f875af1925050508015610dde575060408051601f3d908101601f19168201909252610ddb9181019061184a565b60015b610e45573d808015610e0b576040519150601f19603f3d011682016040523d82523d5f602084013e610e10565b606091505b5080515f03610e3d57604051633250574960e11b81526001600160a01b038516600482015260240161048c565b805160208201fd5b6001600160e01b03198116630a85bd0160e11b14610e8157604051633250574960e11b81526001600160a01b038516600482015260240161048c565b505b5050505050565b6060600a80546103b090611646565b60605f610ea58361117c565b60010190505f8167ffffffffffffffff811115610ec457610ec46113ff565b6040519080825280601f01601f191660200182016040528015610eee576020820181803683370190505b5090508181016020015b5f19017f3031323334353637383961626364656600000000000000000000000000000000600a86061a8153600a8504945084610ef857509392505050565b5f6001600160e01b031982167f80ac58cd000000000000000000000000000000000000000000000000000000001480610f9857506001600160e01b031982167f5b5e139f00000000000000000000000000000000000000000000000000000000145b8061039c57507f01ffc9a7000000000000000000000000000000000000000000000000000000006001600160e01b031983161461039c565b8080610fe457506001600160a01b03821615155b156110c3575f610ff384610927565b90506001600160a01b0383161580159061101f5750826001600160a01b0316816001600160a01b031614155b801561105057506001600160a01b038082165f9081526005602090815260408083209387168352929052205460ff16155b156110795760405163a9fbf51f60e01b81526001600160a01b038416600482015260240161048c565b81156110c15783856001600160a01b0316826001600160a01b03167f8c5be1e5ebec7d5bd14f71427d1e84f3dd0314c0f7b2291e5b200ac8c7c3b92560405160405180910390a45b505b50505f908152600460205260409020805473ffffffffffffffffffffffffffffffffffffffff19166001600160a01b0392909216919091179055565b61110a83838361125d565b6105ba576001600160a01b03831661113857604051637e27328960e01b81526004810182905260240161048c565b6040517f177e802f0000000000000000000000000000000000000000000000000000000081526001600160a01b03831660048201526024810182905260440161048c565b5f807a184f03e93ff9f4daa797ed6e38ed64bf6a1f01000000000000000083106111c4577a184f03e93ff9f4daa797ed6e38ed64bf6a1f010000000000000000830492506040015b6d04ee2d6d415b85acef810000000083106111f0576d04ee2d6d415b85acef8100000000830492506020015b662386f26fc10000831061120e57662386f26fc10000830492506010015b6305f5e1008310611226576305f5e100830492506008015b612710831061123a57612710830492506004015b6064831061124c576064830492506002015b600a831061039c5760010192915050565b5f6001600160a01b038316158015906112d85750826001600160a01b0316846001600160a01b031614806112b557506001600160a01b038085165f9081526005602090815260408083209387168352929052205460ff165b806112d857505f828152600460205260409020546001600160a01b038481169116145b949350505050565b6001600160e01b031981168114610842575f5ffd5b5f60208284031215611305575f5ffd5b81356107e8816112e0565b5f81518084528060208401602086015e5f602082860101526020601f19601f83011685010191505092915050565b602081525f6107e86020830184611310565b5f60208284031215611360575f5ffd5b5035919050565b80356001600160a01b03811681146106e2575f5ffd5b5f5f6040838503121561138e575f5ffd5b61139783611367565b946020939093013593505050565b5f5f5f606084860312156113b7575f5ffd5b6113c084611367565b92506113ce60208501611367565b929592945050506040919091013590565b5f5f604083850312156113f0575f5ffd5b50508035926020909101359150565b634e487b7160e01b5f52604160045260245ffd5b5f5f67ffffffffffffffff84111561142d5761142d6113ff565b50604051601f19601f85018116603f0116810181811067ffffffffffffffff8211171561145c5761145c6113ff565b604052838152905080828401851015611473575f5ffd5b838360208301375f60208583010152509392505050565b5f6020828403121561149a575f5ffd5b813567ffffffffffffffff8111156114b0575f5ffd5b8201601f810184136114c0575f5ffd5b6112d884823560208401611413565b80356bffffffffffffffffffffffff811681146106e2575f5ffd5b5f5f5f606084860312156114fc575f5ffd5b8335925061150c60208501611367565b915061151a604085016114cf565b90509250925092565b5f60208284031215611533575f5ffd5b6107e882611367565b5f5f6040838503121561154d575f5ffd5b61155683611367565b91506020830135801515811461156a575f5ffd5b809150509250929050565b5f5f5f5f60808587031215611588575f5ffd5b61159185611367565b935061159f60208601611367565b925060408501359150606085013567ffffffffffffffff8111156115c1575f5ffd5b8501601f810187136115d1575f5ffd5b6115e087823560208401611413565b91505092959194509250565b5f5f604083850312156115fd575f5ffd5b61160683611367565b915061161460208401611367565b90509250929050565b5f5f5f6060848603121561162f575f5ffd5b61163884611367565b925061150c60208501611367565b600181811c9082168061165a57607f821691505b60208210810361167857634e487b7160e01b5f52602260045260245ffd5b50919050565b634e487b7160e01b5f52601160045260245ffd5b808202811582820484141761039c5761039c61167e565b5f826116c357634e487b7160e01b5f52601260045260245ffd5b500490565b601f8211156105ba57805f5260205f20601f840160051c810160208510156116ed5750805b601f840160051c820191505b81811015610e83575f81556001016116f9565b815167ffffffffffffffff811115611726576117266113ff565b61173a816117348454611646565b846116c8565b6020601f82116001811461176c575f83156117555750848201515b5f19600385901b1c1916600184901b178455610e83565b5f84815260208120601f198516915b8281101561179b578785015182556020948501946001909201910161177b565b50848210156117b857868401515f19600387901b60f8161c191681555b50505050600190811b01905550565b5f600182016117d8576117d861167e565b5060010190565b5f81518060208401855e5f93019283525090919050565b5f6112d861180483866117df565b846117df565b6001600160a01b03851681526001600160a01b0384166020820152826040820152608060608201525f6118406080830184611310565b9695505050505050565b5f6020828403121561185a575f5ffd5b81516107e8816112e056fea26469706673582212208909756477ac2aa4de8e80ae9d68b105022b4a77390299ef328984b30f83f1b264736f6c634300081c0033",
  "linkReferences": {},
  "deployedLinkReferences": {},
  "immutableReferences": {},
  "inputSourceName": "project/contracts/MyNFT.sol",
  "buildInfoId": "solc-0_8_28-c0a44b8992397a766e0eadb5c8567345cc57c3d2"
}